:107E0000112485E08093810082E08093C00088E1A6
:107E10008093C10086E08093C20080E18093C4001B
:107E200084B714BE81FFC7D08EE0BFD0259A86E00C
:107E300020E33CEF91E0309385002093840096BBD3
:107E4000B09BFECF1D9AA8958150A9F799249394D1
:107E5000A5E0AA2EF1E1BF2EA0D0813421F481E06B
:107E6000B5D083E01FC0823411F484E103C08534AF
:107E700019F485E0ABD086C0853579F48ED0E82E34
:107E8000FF248BD0082F10E0102F00270E291F2968
:107E9000000F111F95D0680175C0863529F484E064
:107EA00095D080E072D06EC0843609F045C075D0A0
:107EB00074D0082F72D080E0C81680E7D80620F46E
:107EC00083E0F60187BFE895C0E0D1E066D08993F2
:107ED0000C17E1F7F0E0CF16F0E7DF0620F083E0C3
:107EE000F60187BFE8956CD007B600FCFDCFA60170
:107EF000A0E0B1E02C9130E011968C91119790E0C8
:107F0000982F8827822B932B1296FA010C019092BE
:107F10005700E89511244E5F5F4FF1E0A038BF078E
:107F200049F7F601A0925700E89507B600FCFDCF8F
:107F3000B0925700E89526C08437B1F42ED02DD0EA
:107F4000F82E2BD03DD0F601EF2C8F010F5F1F4F85
:107F500084911BD0EA94F801C1F70894C11CD11C8C
:107F6000FA94CF0CD11C0EC0853739F429D08EE19C
:107F70000CD085E90AD08FE095CF813511F488E0E7
:107F800014D01ED080E101D067CF982F8091C0001F
:107F900085FFFCCF9093C6000895A8958091C000FE
:107FA00087FFFCCF8091C6000895E0E6F0E098E1FD
:107FB00090838083089580E0F8DFEE27FF270994FF
:107FC000ECDF803209F0F7DF84E1DFCF1F93182F59
:0C7FD000E4DF1150E9F7F4DF1F91089581
:0400000300007E007B
:00000001FF
