:107E0000112485E08093810082E08093C00088E1A6
:107E10008093C10086E08093C20080E18093C4001B
:107E200084B714BE81FFDED08DE0D6D0259A86E0DF
:107E300020E33CEF91E0309385002093840096BBD3
:107E4000B09BFECF1D9AA8958150A9F7DD24D3944D
:107E5000A5E0EA2EF1E1FF2EB2D0813421F481E0D9
:107E6000CCD083E024C0823411F484E103C0853493
:107E700019F485E0C2D098C08535A1F4A0D0082FB0
:107E800010E0109301020093000299D090E0982F27
:107E90008827802B912B880F991F90930102809344
:107EA000000281C0863529F484E0A7D080E07FD02D
:107EB0007BC0843609F051C08AD0E0910002F09175
:107EC000010280E7E030F80718F483E087BFE89507
:107ED000C0E0D1E074D089938091020281508093F8
:107EE00002028823B9F7E0910002F091010280E7D5
:107EF000E030F80718F083E087BFE89578D007B640
:107F000000FCFDCF4091000250910102A0E0B1E0E1
:107F10002C9130E011968C91119790E0982F882742
:107F2000822B932B1296FA010C01D0925700E89500
:107F300011244E5F5F4FF1E0A038BF0749F7E09191
:107F40000002F0910102E0925700E89507B600FCAC
:107F5000FDCFF0925700E89527C08437B9F437D0A9
:107F600046D0E0910002F09101023196F0930102B7
:107F7000E09300023197E4918E2F19D08091020294
:107F8000815080930202882361F70EC0853739F44F
:107F90002ED08EE10CD085E90AD08FE088CF8135D4
:107FA00011F488E019D023D080E101D055CF982F6B
:107FB0008091C00085FFFCCF9093C6000895A895DE
:107FC0008091C00087FFFCCF8091C6000895F7DF45
:107FD000F6DF80930202F3CFE0E6F0E098E19083D1
:107FE0008083089580E0F8DFEE27FF270994E7DF1C
:107FF000803209F0F7DF84E1DACF1F93182FDFDF3B
:0A8000001150E9F7F4DF1F91089515
:0400000300007E007B
:00000001FF
